:020000040800F2
:1000000000500020190B0008D1020008D30200089C
:10001000D5020008D7020008D9020008000000003D
:10002000000000000000000000000000DB020008EB
:10003000DD02000800000000DF020008E102000805
:10004000610B0008610B0008610B0008610B0008E0
:10005000610B0008610B0008610B0008610B0008D0
:10006000610B0008610B0008610B0008610B0008C0
:10007000610B0008610B0008610B0008610B0008B0
:10008000610B0008610B0008610B0008610B0008A0
:10009000610B0008610B0008610B0008610B000890
:1000A000610B0008610B0008610B0008610B000880
:1000B000610B0008610B0008610B0008610B000870
:1000C000610B0008610B0008610B0008610B000860
:1000D000610B0008610B0008610B0008610B000850
:1000E000610B0008610B0008610B000800000000B4
:1000F0000000000000000000000000000000000000
:0C01000000000000000000005FF808F1A3
:10010C0010B5054C237833B9044B13B10448AFF345
:10011C0000800123237010BD680000200000000047
:10012C00301A000808B5034B1BB103490348AFF361
:10013C00008008BD000000006C000020301A000890
:10014C00102210B588B00DEB0200002100F028FD44
:10015C00174B184C9A69204642F010029A619A6922
:10016C00202102F010020192019A9A6942F00402D5
:10017C009A619A6902F004020292029A9A6942F018
:10018C0008029A619B69002203F008030393039B06
:10019C0000F048FA202304930123059300230693CF
:1001AC00022304A92046079300F05CF908B010BDA7
:1001BC00001002400008014010B500234FF06044CD
:1001CC00934201DB104610BDD4F8800EC00703D556
:1001DC00D4F8000EC00702D40133F1E700BF206849
:1001EC000028FBD0C85C2070F6E700B591B028223F
:1001FC00002106A800F0D4FC1422002101A800F074
:10020C00CFFC0223069301230A93102306A80B9319
:10021C0000F00EFA00210F2301A801930291039123
:10022C000491059100F0CEFB11B05DF804FB0000C9
:10023C0038B500F08BF80024FFF7D7FFFFF780FFED
:10024C000C4D01222021284600F0ECF94FF4FA70F5
:10025C0000F09CF800222021284600F0E3F901343C
:10026C004FF4FA7000F092F82146034800F0A0FC1D
:10027C00E7E700BF00080140581A00080F4B82B096
:10028C009A6942F001029A619A6902F001020092A5
:10029C00009ADA6942F08052DA61DB6903F080532C
:1002AC000193019B064B5A6822F0E0625A605A682F
:1002BC0042F000725A6002B0704700BF001002405A
:1002CC00000001407047FEE7FEE7FEE7FEE77047DF
:1002DC007047704700F04CB80F4B1A6842F001029F
:1002EC001A6059680D4A0A405A601A6822F08472E2
:1002FC0022F480321A601A6822F480221A605A683A
:10030C0022F4FE025A604FF41F029A604FF0006212
:10031C00034B9A60704700BF001002400000FFF8CA
:10032C0000ED00E0084B10B5044618684FF47A73E2
:10033C00B0FBF3F000F080F8002221464FF0FF30C4
:10034C0000F046F8002010BD00000020074A08B558
:10035C001368032043F01003136000F027F800200B
:10036C00FFF7E0FFFFF78AFF002008BD00200240E6
:10037C00024A136801331360704700BF90000020DD
:10038C00014B1868704700BF9000002037B50190F2
:10039C00FFF7F6FF0546019C631C18BF0134FFF7FD
:1003AC00EFFF401BA042FAD303B030BD074A000256
:1003BC00D36800F4E06023F4E0631B041B0C43F0EF
:1003CC00BF6343F400330343D360704700ED00E098
:1003DC00174B30B5DC68C4F30224C4F10703251DA8
:1003EC00042B28BF0423062D4FF0010598BF0024D1
:1003FC0005FA03F303F1FF3388BF033C1940A14016
:10040C0005FA04F4013C2240002842EA01024FEABA
:10041C000212AFBF00F16040064B00F00F00D2B2E9
:10042C00A5BFD2B200F561401A5480F8002330BD4C
:10043C0000ED00E014ED00E00138B0F1807F0AD24D
:10044C00F021064B064A586082F823100020072240
:10045C0098601A6070470120704700BF10E000E000
:10046C0000ED00E02DE9F74F00221646654BDFF852
:10047C00A4E1DFF8A4C14FF001080C6808FA06F8F3
:10048C0008EA0404A0457FD14D68122D00F0AF801E
:10049C0000F28880022D00F0A7807CD8002D00F09F
:1004AC008E80012D00F09E804FF00F09FF2C93BF22
:1004BC00824606F18045083DD0F800B092BFB500E9
:1004CC00D0F804B0AD0009FA05F82BEA080802FAD6
:1004DC0005F588BF00F1040A48EA0505CAF8005082
:1004EC00D1F804A01AF0805F4ED0474D464FAD694D
:1004FC0026F0030845F00105BD61BD6908F180488F
:10050C0005F00105019508F5803806F0030B019DF7
:10051C004FEA8B0BD8F8085009FA0BF925EA0909B0
:10052C003A4DA84268D005F58065A84266D005F51D
:10053C008065A84264D005F58065A8420CBF0325F0
:10054C00042505FA0BF545EA0905C8F808501D689D
:10055C001AF4803F14BF2543A5431D605D681AF44F
:10056C00003F14BF2543A5435D609D681AF4801FAE
:10057C0014BF2543A5439D60DD681AF4001F14BF0A
:10058C002C4325EA0404DC600136102E7FF473AF93
:10059C0003B0BDE8F08F032D22D0112D84D1CA6891
:1005AC00043281E71A4FBD4209D012D8DFF86C90A3
:1005BC004D4504D009F580394D457FF475AF8A68F7
:1005CC00C2B1012A0CBFC0F81080C0F814800822F8
:1005DC006AE77545F3D06545F1D0DFF84490EBE759
:1005EC00002261E7CA685FE7CA6808325CE7CA683C
:1005FC000C3259E7042257E70025A2E70125A0E7B2
:10060C0002259EE700040140001002400008014052
:10061C0000002110000031100000321000001110F9
:10062C00000022100AB1016170470904FBE70000C9
:10063C0003682DE9F341DB07054610D42B689F07AF
:10064C005ED42B68190700F195802B685A0700F1CE
:10065C00BF80EA69002A40F02D81002014E0904C04
:10066C00636803F00C03042B07D0636803F00C03DE
:10067C00082B0CD16368DE0309D523689C03DDD5F8
:10068C006B68002BDAD1012002B0BDE8F0816B68F9
:10069C00B3F5803F10D1236843F480332360FFF718
:1006AC006FFE064623689803C8D4FFF769FE801BCB
:1006BC006428F7D90320E7E79BB9236823F4803338
:1006CC002360236823F480232360FFF759FE06463A
:1006DC0023689903B2D5FFF753FE801B6428F7D922
:1006EC00E8E7B3F5A02F236803D143F480232360FC
:1006FC00D1E723F480332360236823F48023CDE7F0
:10070C00674C636813F00C0F07D0636803F00C039D
:10071C00082B10D16368DA030DD423689B0702D52C
:10072C002B69012BAFD123686A6923F0F80343EAE4
:10073C00C203236085E72A695A4B6AB101221A6009
:10074C00FFF71EFE064623689F07ECD4FFF718FE42
:10075C00801B0228F7D9ADE71A60FFF711FE064699
:10076C00236898077FF56DAFFFF70AFE801B022800
:10077C00F6D99FE7AA694A4C4B4BDAB101221A60B1
:10078C00FFF7FEFD0646636A9B070DD54FF4FA5240
:10079C00464B1B68B3FBF2F3019300BF019B5A1E3F
:1007AC000192002BF9D150E7FFF7EAFD801B0228DC
:1007BC00E9D97FE71A60FFF7E3FD0646636A9F07F6
:1007CC007FF543AFFFF7DCFD801B0228F6D971E7FC
:1007DC00334CE369D80024D40127E36943F08053F8
:1007EC00E361E36903F080530093009B304E336860
:1007FC00D90518D5EB68012B26D1236A43F00103E8
:10080C002362FFF7BDFD41F288368046236A9B07C1
:10081C003FD5002F3FF41DAFE36923F08053E36114
:10082C0017E70027E2E7336843F480733360FFF780
:10083C00A7FD80463368DA05DCD4FFF7A1FDA0EBF9
:10084C0008006428F6D935E7ABB9236A41F2883839
:10085C0023F001032362236A23F004032362FFF7CE
:10086C008FFD0646236A9807D3D5FFF789FD801BB9
:10087C004045F7D91EE7052B236A03D143F0040347
:10088C002362BAE723F001032362236A23F00403F3
:10089C00B6E7FFF775FDA0EB0800B042B6D909E743
:1008AC00001002400000424280044242000000203E
:1008BC0000700040224C636803F00C03082B3FF4DB
:1008CC00E2AE00231F4E022A33602BD1FFF758FDF6
:1008DC000746236899011FD42B6AB3F5803F05D1D5
:1008EC006268A96822F400320A436260696A62682D
:1008FC000B4322F474121343636001233360FFF73C
:10090C003FFD054623689A013FF5A7AEFFF738FD7A
:10091C00401B0228F6D9CDE6FFF732FDC01B02289A
:10092C00D7D9C7E6FFF72CFD054623689B017FF559
:10093C0094AEFFF725FD401B0228F6D9BAE600BF9E
:10094C00001002406000424230B51A4B87B002AC36
:10095C0003F11005224618685968083303C2AB42EC
:10096C001446F7D101238DF80430022312498DF877
:10097C0005304B6803F00C02082A18D1C3F38342EC
:10098C00DB0348BF4B6806A8024448BFC3F340438F
:10099C0012F8100C41BF06AA9B1813F8142C074B25
:1009AC0054BF074BB3FBF2F3584307B030BD0348B9
:1009BC00FBE700BF481A00080010024000127A0042
:1009CC0000093D004D4A2DE9F0411368054603F03E
:1009DC0007038B420E4628D32A68910732D4D207DC
:1009EC0038D4464A136803F007039E4273D32A682F
:1009FC00434C12F0040F79D1130706D563682A69AA
:100A0C0023F4605343EAC2036360FFF79DFF6368FE
:100A1C003C4AC3F30313D35CD8403B4B1860002013
:100A2C00FFF780FC0020BDE8F081136823F007037A
:100A3C000B431360136803F007039942CCD00120D9
:100A4C00BDE8F0812E49A8684B6823F0F0030343FE
:100A5C004B60C4E76A682A4C012A23681CD113F442
:100A6C00003FECD0636841F2883823F00303134352
:100A7C006360FFF785FC6B680746012B14D1636834
:100A8C0003F00C03042BACD0FFF77AFCC01B4045E1
:100A9C00F5D90320BDE8F081022A02D113F0007FC2
:100AAC00DFE713F0020FDCE7022B0FD1636803F0D2
:100ABC000C03082B95D0FFF763FCC01B4045F5D900
:100ACC00E7E7FFF75DFCC01B4045E2D8636813F015
:100ADC000C0FF6D185E7136823F00703334313603B
:100AEC00136803F007039E42A9D180E76368E968A5
:100AFC0023F4E0630B4363607EE700BF00200240F9
:100B0C0000100240691A000800000020002103E0D8
:100B1C000B4B5B58435004310A480B4B42189A421A
:100B2C00F6D30A4A02E0002342F8043B084B9A42EF
:100B3C00F9D3FFF7D1FB00F00FF8FFF779FB704703
:100B4C001C1B00080000002068000020680000202A
:100B5C0098000020FEE7000070B500250C4E0D4CEF
:100B6C00A41BA410A54209D100F05CFF00250A4E7D
:100B7C000A4CA41BA410A54205D170BD56F8253013
:100B8C0098470135EEE756F8253098470135F2E7DE
:100B9C00141B0008141B0008141B0008181B000869
:100BAC0003460244934200D1704703F8011BF9E756
:100BBC000FB40A4B13B51C6824B1A36913B92046B2
:100BCC0000F04EF805AB049AA1682046019300F0A2
:100BDC0057F902B0BDE8104004B070470400002083
:100BEC00014900F0A9B800BF65170008002310B533
:100BFC00044603604360836081814366C281036164
:100C0C0043618361194608225C30FFF7C9FF054B2D
:100C1C0024626362044BA362044BE362044B2363C0
:100C2C0010BD00BF091400082B1400086314000841
:100C3C008714000870B568254A1E55430E4605F109
:100C4C00740100F097F8044640B1002180E842009E
:100C5C000C30A06005F16802FFF7A2FF204670BDC2
:100C6C00836910B5044633BB8364C3640365124BBC
:100C7C00124A1B688262984204BF0123836100F010
:100C8C001FF86060204600F01BF8A060204600F0C2
:100C9C0017F80022E06004216068FFF7A7FF01222B
:100CAC000921A068FFF7A2FF02221221E068FFF7DA
:100CBC009DFF0123A36110BDDC1A0008ED0B000899
:100CCC00F8B51C4B07461E68B36913B93046FFF7DD
:100CDC00C7FF4836B4687368013B03D5336833B13A
:100CEC003668F7E7B4F90C506DB16834F4E70421B9
:100CFC003846FFF79FFF30600028F1D10C230446E3
:100D0C003B602046F8BD4FF6FF73E3810123656617
:100D1C00A3812560A560656025616561A5610822D8
:100D2C00294604F15C00FFF73BFF6563A563A564EE
:100D3C00E564E6E7DC1A00082DE9F84380468946AD
:100D4C00002600F1480414B93046BDE8F883A568C4
:100D5C006768013F01D52468F5E7AB89012B07D9FA
:100D6C00B5F90E30013303D029464046C847064337
:100D7C006835EEE770B5CD1C25F0030508350C2D54
:100D8C0038BF0C25002D064601DBA94203D90C23E4
:100D9C003360002070BD00F08DFD234A146821469D
:100DAC0091B9224C23681BB9304600F017FB206028
:100DBC002946304600F012FB431C26D10C2330464A
:100DCC00336000F078FDE4E70B685B1B1AD40B2B47
:100DDC000FD90B60CC18CD50304600F06CFD04F1EF
:100DEC000B00231D20F00700C31A1BD05A42E250FF
:100DFC0070BD8C420BBF63684B681360636018BF97
:100E0C000C46E9E70C464968CAE7C41C24F0030405
:100E1C00A04205D0211A304600F0E0FA0130CDD0C6
:100E2C002560D9E770BD00BF840000208800002039
:100E3C00936810B4013B002B936008DA9469A342C9
:100E4C0002DBCBB20A2B02D110BC00F01BBB136827
:100E5C00581C10601970C8B210BC7047F8B5064623
:100E6C000F461446D518AC4201D1002007E03A4693
:100E7C0014F8011B3046FFF7DBFF431CF3D1F8BD20
:100E8C002DE9F04F9DB00C4617460393064618B15A
:100E9C0083690BB9FFF7E4FE7C4B9C4257D1746815
:100EAC00A38918075DD52369002B5AD00023099319
:100EBC0020238DF8293030234FF0010B8DF82A3088
:100ECC00B846454615F8013B002B55D1B8EB070A3F
:100EDC000BD053463A4621463046FFF7BFFF013050
:100EEC0000F0C480099B5344099398F80030002B00
:100EFC0000F0BC8000234FF0FF320493079305925F
:100F0C0006938DF853301A9305222978604800F027
:100F1C00C3FC05F10108049B002831D1D90644BF5C
:100F2C0020228DF853201A0744BF2B228DF8532012
:100F3C002A782A2A2CD000210A20079AA84698F849
:100F4C0000300135303B092B6DD971B326E0514B84
:100F5C009C4201D1B468A3E74F4B9C4208BFF46894
:100F6C009EE72146304600F0F1FA00289ED04FF063
:100F7C00FF301DB0BDE8F08F252BA7D0A846A0E709
:100F8C00434A4546801A0BFA00F018430490BBE71D
:100F9C00039A111D12680391002A01DB079204E0E9
:100FAC00524243F002030792049398F800302E2B20
:100FBC0010D198F8013008F101012A2B37D1039B8D
:100FCC0008F102081A1D1B680392002BB8BF4FF0E2
:100FDC00FF330593314D032298F80010284600F09A
:100FEC005BFC40B14023401B03FA00F0049B08F16A
:100FFC0001080343049398F800100622284808F1CE
:10100C0001078DF8281000F047FC002834D0254B40
:10101C0003BB039B073323F0070308330393099B9C
:10102C004B4409934CE700FB0232012186E7002375
:10103C000A2518460593884698F800200131303A65
:10104C00092A03D9002BC5D00590C3E705FB002066
:10105C000123F0E703AB00932246134B04A930465F
:10106C00AFF30080B0F1FF3F8146D8D1A3895B0676
:10107C003FF57DAF09987CE703AB009322460A4B02
:10108C0004A9304600F08AF8ECE700BF9C1A00086F
:10109C00E01A0008BC1A00087C1A0008E61A0008BE
:1010AC00EA1A000800000000690E00082DE9F0475C
:1010BC0091461F468A680B6906469342B8BF134691
:1010CC00C9F8003091F843200C46DDF8208012B1AD
:1010DC000133C9F800302368990642BFD9F80030B3
:1010EC000233C9F80030256815F0060507D104F164
:1010FC00190AE368D9F800209B1A9D422ADB94F860
:10110C0043302268003318BF012392062FD404F118
:10111C00430239463046C047013022D02368E56887
:10112C0003F00603042B18BF0025D9F800204FF05C
:10113C00000908BFAD1AA368226908BF25EAE57546
:10114C009342C4BF9B1AED181A344D451BD1002095
:10115C00BDE8F0870123524639463046C04701307E
:10116C0003D14FF0FF30BDE8F0870135C1E73020E7
:10117C00E11881F843005A1C94F8451022440233BC
:10118C0082F84310C3E70123224639463046C04754
:10119C000130E6D009F10109D7E700002DE9F04351
:1011AC0017460A7E85B06E2A984606460C460C9B5E
:1011BC0001F1430E00F0BC801AD8632A2ED00AD855
:1011CC00002A00F0C880582A00F08A8004F14205F9
:1011DC0084F842202AE0642A01D0692AF6D12168D9
:1011EC001A6811F0800F23D0111D1960136827E0C5
:1011FC00732A00F0B48008D86F2A2AD0702AE5D15F
:10120C000A6842F020020A6003E0752A21D0782A8D
:10121C00DCD178226F4984F8452064E01A6801F12A
:10122C004205111D1960136884F842300123A3E0B4
:10123C0011F0400F02F104011960D7D0B2F900305F
:10124C00002B03DA2D225B4284F8432062490A22E8
:10125C0017E02068196810F0800F03D0081D186083
:10126C000B6806E010F0400F01F104001860F7D095
:10127C000B886F2A14BF0A2208225749002084F8D1
:10128C0043006568002DA560C0F29C80206820F0AA
:10129C0004002060002B3FD1002D40F09580754656
:1012AC00082A0BD12368DA0708D5236962689A42A9
:1012BC00DEBF302305F8013C05F1FF35AEEB05032D
:1012CC002361CDF800803B4603AA21463046FFF748
:1012DC00EDFE013055D14FF0FF3005B0BDE8F08385
:1012EC0081F845203C492268186812F0800F00F103
:1012FC0004051D6001D0036802E05506FBD5038888
:10130C00D00744BF42F0200222601BB9226822F0B1
:10131C00200222601022B1E77546B3FBF2F002FB0B
:10132C001033CB5C05F8013D03460028F5D1B7E737
:10133C0008681A6810F0800F496904D0101D1860F5
:10134C001368196007E010F0400F02F104001860F8
:10135C001368F6D01980002375462361B1E71A682B
:10136C00111D1960156800216268284600F094FA76
:10137C0008B1401B606063682361002384F843302C
:10138C009FE723692A4639463046C0470130A2D030
:10139C0023689B0707D5002504F11909E368039A14
:1013AC009B1A9D4205DBE068039B9842B8BF184628
:1013BC0093E701234A4639463046C04701308AD06C
:1013CC000135EBE7002BA7D10B7804F1420584F82B
:1013DC00423065E7021B0008F11A000838B50023FB
:1013EC00054C05460846236000F00EFB431C02D159
:1013FC00236803B12B6038BD9400002010B50C4657
:10140C00B1F90E1000F0A4FA0028ABBF636DA389EC
:10141C001B1823F48053ACBF6365A38110BD2DE969
:10142C00F0411F468B890546DB050C46164605D553
:10143C0002230022B1F90E1000F0B8F9A38932464C
:10144C0023F48053A381B4F90E103B462846BDE823
:10145C00F04100F069B810B50C46B1F90E1000F06F
:10146C00A5F9431CA38915BF606523F4805343F48D
:10147C008053A38118BFA38110BDB1F90E1000F0E9
:10148C00D3B80000F8B50E461446054618B183696A
:10149C000BB9FFF7E5FB214B9C422AD16C68A36981
:1014AC00A360A3891A072ED5236963B32369206827
:1014BC00F6B2C01A63693746984204DB21462846C7
:1014CC0000F04AF928BBA3680130013BA3602368F4
:1014DC005A1C22601E706369984204D0A389DB07F2
:1014EC0019D50A2E17D12146284600F035F990B1AE
:1014FC000FE00B4B9C4201D1AC68D0E7094B9C42EE
:10150C0008BFEC68CBE72146284600F01FF80028FE
:10151C00CCD04FF0FF373846F8BD00BF9C1A0008FE
:10152C00BC1A00087C1A000838B505460846114656
:10153C000022054C22601A46FEF73EFE431C02D1E7
:10154C00236803B12B6038BD94000020324B70B57A
:10155C001D6806460C4625B1AB6913B92846FFF742
:10156C007FFB2E4B9C420FD16C68B4F90C309AB2B5
:10157C0015072CD4D00611D40922326043F0400355
:10158C00A3814FF0FF3070BD254B9C4201D1AC685C
:10159C00EBE7244B9C4208BFEC68E6E7510712D5F9
:1015AC00616B41B104F14403994202D0304600F022
:1015BC0083F900236363A38923F02403A38100230D
:1015CC00636023692360A38943F00803A381236923
:1015DC004BB9A38903F42073B3F5007F03D02146E4
:1015EC00304600F019F9A28912F001030CD0002347
:1015FC00A36063695B42A361236953B9B4F90C30EE
:10160C0013F08000BAD170BD920758BF6369A36014
:10161C00F2E70020F7E700BF040000209C1A000846
:10162C00BC1A00087C1A000838B50023054C054686
:10163C000846236000F0C0F9431C02D1236803B1B3
:10164C002B6038BD940000208A892DE9F0410546B5
:10165C0010070C465AD44B68002B05DC0B6C002B86
:10166C0002DC0020BDE8F081E66A002EF9D00023F0
:10167C0012F480522F682B6033D0606DA3895A0707
:10168C0005D56368C01A636B0BB1236CC01A0023B9
:10169C000246E66A216A2846B047431CA38906D154
:1016AC0029681D294BD82B4ACA40D60747D500229A
:1016BC0062602269D904226004D5421C01D12B68D6
:1016CC0003B96065616B2F600029CAD004F1440333
:1016DC00994202D0284600F0EFF800206063BDE884
:1016EC00F081216A01232846B047411CC6D12B68E2
:1016FC00002BC3D01D2B01D0162B01D12F60B0E7CE
:10170C00A38943F04003A381BDE8F0810F69002F4A
:10171C00A7D0930718BF00230E6808BF4B69A6EB30
:10172C0007080F608B60B8F1000F9ADD43463A460C
:10173C00216A2846A66AB047002807DCA38943F033
:10174C004003A3814FF0FF30BDE8F0810744A8EBC4
:10175C000008E8E70100402038B50B6905460C4647
:10176C00DBB118B183690BB9FFF77AFA0C4B9C42C9
:10177C0009D16C68B4F90C307BB121462846BDE820
:10178C003840FFF761BF074B9C4201D1AC68F1E7D1
:10179C00054B9C4208BFEC68ECE7002038BD00BF4D
:1017AC009C1A0008BC1A00087C1A000838B50546BB
:1017BC00084611460022054C22601A4600F014F926
:1017CC00431C02D1236803B12B6038BD9400002068
:1017DC0070B50E46B1F90E1090B0002914461D4696
:1017EC0007DA00232B60B3891A0610D44FF48063F8
:1017FC000EE001AA00F0BEF80028F2DB029A02F417
:10180C007042A2F500535A425A412A60EEE7402337
:10181C000020236010B070BD8B8973B59D07064600
:10182C000C4607D504F14703236023610123636150
:10183C0002B070BD01AB6A46FFF7CAFF00990546BE
:10184C003046FFF797FA48B9B4F90C309A05EFD443
:10185C0023F0030343F00203A381E3E70D4BB362D0
:10186C00A389206043F08003A381009B2061636106
:10187C00019B5BB1B4F90E10304600F08DF828B125
:10188C00A38923F0030343F00103A381A3891D4320
:10189C00A581CDE7ED0B000810B5C9B2024490420A
:1018AC00034601D1002010BD1C7801308C42F6D1CA
:1018BC00184610BD7047704738B50546002943D00F
:1018CC0051F8043C0C1F002BB8BFE418FFF7F2FFD3
:1018DC001E4A1368104633B9636014602846BDE88D
:1018EC003840FFF7E8BFA3420BD921686218934236
:1018FC0001BF1A685B685218226063600460EDE7F0
:10190C0013465A680AB1A242FAD919685818A0426B
:10191C000BD120680144581882421960DED110683E
:10192C005268014419605A60D8E702D90C232B6025
:10193C00D4E7206821188A4201BF1168526809183F
:10194C00216062605C60C9E738BD00BF8400002084
:10195C0038B50546084611460022054C22601A4649
:10196C0000F04AF8431C02D1236803B12B6038BD48
:10197C009400002038B50023064C05460846114655
:10198C00236000F021F8431C02D1236803B12B60C3
:10199C0038BD00BF9400002038B50023054C054627
:1019AC000846236000F018F8431C02D1236803B1E9
:1019BC002B6038BD940000205822024B4FF0FF30B2
:1019CC001A607047940000205822024B4FF0FF30F1
:1019DC001A607047940000205822024B00201A60B5
:1019EC00704700BF940000205822024B4FF0FF308C
:1019FC001A607047940000205822024B4FF0FF30C1
:101A0C001A60704794000020044B0246196809B90B
:101A1C0003491960186802441A6070478C00002052
:101A2C0098000020F8B500BFF8BC08BC9E46704773
:0C1A3C00F8B500BFF8BC08BC9E4670471F
:101A480002030405060708090A0B0C0D0E0F1010F7
:101A580025642048656C6C6F20576F726C64210A8E
:101A6800000000000000000000010203040607084F
:101A78000900000000000000000000000000000055
:101A8800000000000000000000000000000000004E
:101A9800000000000000000000000000000000003E
:101AA800000000000000000000000000000000002E
:101AB800000000000000000000000000000000001E
:101AC800000000000000000000000000000000000E
:101AD8000000000008000020232D302B2000686C37
:101AE8004C00656667454647003031323334353639
:101AF8003738394142434445460030313233343572
:0C1B08003637383961626364656600009E
:041B14003101000893
:041B18000D010008B3
:101B1C0000A24A0408000020000000009C1A0008E3
:101B2C00BC1A00087C1A000800000000000000002D
:101B3C000000000000000000000000000000000099
:101B4C000000000000000000000000000000000089
:101B5C000000000000000000000000000000000079
:101B6C000000000000000000000000000000000069
:081B7C00000000000000000061
:0400000508000B19CB
:00000001FF
